00000000000000126457                                   ABALOS SANTIAGOCI000265632981141MST                SAN TELMO            "La Rioja 301000FASEntregas_03.txt
00000006003443309953                                       APAT ANDRESCI000520010077100LOR                  DOLORES Aristobulo del Valle 312000030Entregas_03.txt
00000006003443398917                                  BERJMAN FEDERICOCI000520022157100LOR                  DOLORES Aristobulo del Valle 312000030Entregas_03.txt
00000006003443843737                                   FEDERICO DANIELCI000531053043200CON                CONCORDIA          H. Yrigoyen 771000050Entregas_04.txt
00000006003443932701                                    GARCIA ALBERTOCI000531065123200CON                CONCORDIA          H. Yrigoyen 771000050Entregas_04.txt
00000000000003777890                                     GIMENEZ ARIELCI000210014211141MST                SAN TELMO            "La Rioja 301000FASEntregas_04.txt
00000006003444021665                                      GRIFFO JULIOCI000559901233200CON                CONCORDIA          H. Yrigoyen 771000050Entregas_04.txt
00000006003444110629                               IZAGUIRRE MARGARITACI000559913313200CON                CONCORDIA          H. Yrigoyen 771000050Entregas_04.txt
00000000000003791226                                        KRALI JUANCI000348954911141MST                SAN TELMO            "La Rioja 301000FASEntregas_04.txt
00000006003444199593                                 LOPEZ BAIO BRENDACI000559925393200CON                CONCORDIA          H. Yrigoyen 771000050Entregas_04.txt
00000006003444288557                                 MARTINOVIC ULISESCI000559937473200CON                CONCORDIA          H. Yrigoyen 771000050Entregas_04.txt
00000006003444377521                                      MORA ANTONIOCI000569893033000SFE                 SANTA FE             Mendoza 3343000040Entregas_05.txt
00000006003444466485                                  PEZZOLI EMILIANOCI000569905113000SFE                 SANTA FE             Mendoza 3343000040Entregas_05.txt
00000006003444555449                                   SALATINO RAFAELCI000569917193560RQT              RECONQUISTA          San Lorenzo 845000040Entregas_05.txt
00000000000005407968                               SEGURO ANGEL FABIANCI000441289077100LOR                  DOLORES Aristobulo del Valle 312000030Entregas_05.txt
00000006003444644413                                    TASSARA RAMIROCI000578027553560RQT              RECONQUISTA          San Lorenzo 845000040Entregas_05.txt
00000006003443487881                                    BONGIORNI OMARCI000520034237240LBO                    LOBOS              ALBERDI 212000030Entregas_06.txt
00000006003443576845                                       CARRO PABLOCI000520046317240LBO                    LOBOS              ALBERDI 212000030Entregas_06.txt
00000000000000239794                                 CIARMIELLO JAVIERCI000164931771141MST                SAN TELMO            "La Rioja 301000FASEntregas_06.txt
00000006003443665809                                    DAKOVIC ALEXISCI000520058397240LBO                    LOBOS              ALBERDI 212000030Entregas_06.txt
00000000000000253130                                  DE BRITO GUSTAVOCI000262297151141MST                SAN TELMO            "La Rioja 301000FASEntregas_06.txt
00000006003443754773                                  ESTERSON IGNACIOCI000531040963200CON                CONCORDIA          H. Yrigoyen 771000050Entregas_06.txt
00000006003444733377                                  WALDMAN LEONARDOCI000578039633560RQT              RECONQUISTA          San Lorenzo 845000040Entregas_07.txt
00000000000005421304                                ZEITUNLIAN CLAUDIACI000519911467100LOR                  DOLORES Aristobulo del Valle 312000030Entregas_07.txt
