00000000000000136459                                   CIARLONI MIRIAMDU000395970601427BNO       AV. ALVAREZ THOMAS      Alvarez Thomas 1440000050Entregas_03.txt
00000000000000123123                                     ABALO JONATANDU000111112221427BNO       AV. ALVAREZ THOMAS      Alvarez Thomas 1440000050Entregas_03.txt
00000006003443287712                                      ALONSO EDITHDU000520007056620COY                CHIVILCOY      Av 3 de Febrero 384000075Entregas_03.txt
00000006003443376676                                   BENASSI AGUSTINDU000520019136740CHB                CHACABUCO        Primera Junta 112000075Entregas_03.txt
00000006003443821496                                      FALCON ARIELDU000531050023260CDU   CONCEPCION DEL URUGUAY              Alberdi 791000080Entregas_04.txt
00000006003443910460                                      FRIAS DAMIANDU000531062103260CDU   CONCEPCION DEL URUGUAY              Alberdi 791000080Entregas_04.txt
00000000000000263132                                    GIMENEZ ANDRESDU000210001911427BNO       AV. ALVAREZ THOMAS      Alvarez Thomas 1440000050Entregas_04.txt
00000006003443999424                                   GRASSO BERNARDODU000531074186360PIC             GENERAL PICO        Calle 37 Nro. 606000080Entregas_04.txt
00000006003444088388                                   IVALDI FERNANDODU000559910296360PIC             GENERAL PICO        Calle 37 Nro. 606000080Entregas_04.txt
00000000000003787892                                       KRAL FRANCODU000210051111427BNO       AV. ALVAREZ THOMAS      Alvarez Thomas 1440000050Entregas_04.txt
00000006003444177352                                      LINARES LUISDU000559922376360PIC             GENERAL PICO        Calle 37 Nro. 606000080Entregas_04.txt
00000006003444266316                                   MARTINO LUCIANODU000559934452200LZO              SAN LORENZO             Dorrego 1598000120Entregas_04.txt
00000006003444355280                                  MOLINARI ESTEBANDU000569890012200LZO              SAN LORENZO             Dorrego 1598000120Entregas_05.txt
00000006003444444244                                       PEREZ JORGEDU000569902092200LZO              SAN LORENZO             Dorrego 1598000120Entregas_05.txt
00000006003444533208                                   RODRIGUEZ MARIADU000569914172300RAF                  RAFAELA         Av. Santa Fe 742000120Entregas_05.txt
00000000000005404634                                     SEGUREL TOMASDU000441276776620COY                CHIVILCOY      Av 3 de Febrero 384000075Entregas_05.txt
00000006003444622172                                   SURIJON GABRIELDU000578024532300RAF                  RAFAELA         Av. Santa Fe 742000120Entregas_05.txt
00000006003443465640                                    BOERR GENOVEVADU000520031216740CHB                CHACABUCO        Primera Junta 112000075Entregas_06.txt
00000006003443554604                                     CAMPOS MILTONDU000520043296740CHB                CHACABUCO        Primera Junta 112000075Entregas_06.txt
00000006003443643568                                      CONFORTI UMADU000520055376740CHB                CHACABUCO        Primera Junta 112000075Entregas_06.txt
00000000000000249796                                  DE BRASSI HECTORDU000335223361427BNO       AV. ALVAREZ THOMAS      Alvarez Thomas 1440000050Entregas_06.txt
00000006003443732532                                   DOMINGUEZ RAMONDU000531037943260CDU   CONCEPCION DEL URUGUAY              Alberdi 791000080Entregas_06.txt
