00000000000000256464                               DE CAPODE SEBASTIANLC000118574111408LIR                  LINIERS   Av. Rivadavia 10608/14000040Entregas_03.txt
00000000000000129791                                 ABARLIN JUAN JOSELC000260770471405FLS        PARQUE CENTENARIO           AMBROSETTI 768000040Entregas_03.txt
00000006003443332194                                  BAILLET PATRICIOLC000520013091405FLS        PARQUE CENTENARIO           AMBROSETTI 768000040Entregas_03.txt
00000006003443777014                                    ESTEVEZ GASTONLC000531043981408LIR                  LINIERS   Av. Rivadavia 10608/14000040Entregas_04.txt
00000006003443865978                                    FERREYRA PAULALC000531056061408LIR                  LINIERS   Av. Rivadavia 10608/14000040Entregas_04.txt
00000006003443954942                                     GAZZA NICOLASLC000531068141838ADG             LUIS GUILLON   Boulevard Bs. As. 1459000040Entregas_04.txt
00000000000003781224                                     GIMENEZ BRIANLC000210026511408LIR                  LINIERS   Av. Rivadavia 10608/14000040Entregas_04.txt
00000006003444043906                                     HUERTA MATIASLC000559904251838ADG             LUIS GUILLON   Boulevard Bs. As. 1459000040Entregas_04.txt
00000000000003794560                                     KRALJ ESTEBANLC000348967211405FLS        PARQUE CENTENARIO           AMBROSETTI 768000040Entregas_04.txt
00000006003444132870                                       LEDO FRANCOLC000559916331827AVE               AVELLANEDA             Sarmiento 57000040Entregas_04.txt
00000006003444221834                                    MARCET RODOLFOLC000559928411827AVE               AVELLANEDA             Sarmiento 57000040Entregas_04.txt
00000006003444310798                                     MENDEZ ALONSOLC000559940491827AVE               AVELLANEDA             Sarmiento 57000040Entregas_04.txt
00000006003444399762                                   OLAZABAL FABIANLC000569896051888FLV         FLORENCIO VARELA        Las Americas 1684000040Entregas_05.txt
00000006003443243230                                    PETRINA ADRIANLC000520001011405FLS        PARQUE CENTENARIO           AMBROSETTI 768000040Entregas_05.txt
00000006003444488726                                      RAMOS ESTELALC000569908133100PAR                   PARANA          Almafuerte 1504000120Entregas_05.txt
00000000000003807896                                      RUBAJA SIMONLC000441252171405FLS        PARQUE CENTENARIO           AMBROSETTI 768000040Entregas_05.txt
00000006003444577690                                   SALVINI EDUARDOLC000569920213100PAR                   PARANA          Almafuerte 1504000120Entregas_05.txt
00000006003444666654                                  TEUBER ALEJANDROLC000578030576300STR               SANTA ROSA     Dante Alighieri 1346000120Entregas_05.txt
00000006003443421158                                  BESADA GUILLERMOLC000520025171405FLS        PARQUE CENTENARIO           AMBROSETTI 768000040Entregas_06.txt
00000006003443510122                                      BONINO MABELLC000520037251408LIR                  LINIERS   Av. Rivadavia 10608/14000040Entregas_06.txt
00000000000000243128                                   CIARRLA IGNACIOLC000334977181405FLS        PARQUE CENTENARIO           AMBROSETTI 768000040Entregas_06.txt
00000006003443599086                                   CISTERNAS ANGELLC000520049331408LIR                  LINIERS   Av. Rivadavia 10608/14000040Entregas_06.txt
00000006003443688050                                   DANIELAN ISMAELLC000520061411408LIR                  LINIERS   Av. Rivadavia 10608/14000040Entregas_06.txt
00000006003444755618                                      WEIS ROBERTOLC000578042652000ROS                  ROSARIO     Santiago 360/368/380000120Entregas_07.txt
00000000000005411302                                 ZEBALLOZ CRISTIANLC000519874561405FLS        PARQUE CENTENARIO           AMBROSETTI 768000040Entregas_07.txt
00000006003444800100                                    ZUDAIRE MARTINDU000578048692000ROS                  ROSARIO     Santiago 360/368/380000120Entregas_07.txt
