00000000000003784558                                    KRACHER NOELIALE000210038811010TBL           DIAGONAL NORTE              Cerrito 404000095Entregas_03.txt
00000000000003797894                                         RUA PABLOLE000348979511010TBL           DIAGONAL NORTE              Cerrito 404000095Entregas_03.txt
00000006003443265471                                  ALBANESI VALERIALE000520004031010TBL           DIAGONAL NORTE              Cerrito 404000095Entregas_03.txt
00000006003443354435                                     BEIRO CLAUDIOLE000520016112701INO                PERGAMINO            Italia 471/89000120Entregas_03.txt
00000006003443799255                                     FACIONI DIEGOLE000531047002820GCH             GUALEGUAYCHU         SANTIAGO DIAZ 18000140Entregas_04.txt
00000006003443888219                                    FERRUCCI DARIOLE000531059082820GCH             GUALEGUAYCHU         SANTIAGO DIAZ 18000140Entregas_04.txt
00000006003443977183                                     GIMA EZEQUIELLE000531071162820GCH             GUALEGUAYCHU         SANTIAGO DIAZ 18000140Entregas_04.txt
00000006003444066147                                       HUGUET JUANLE000559907272820GCH             GUALEGUAYCHU         SANTIAGO DIAZ 18000140Entregas_04.txt
00000006003444155111                                      LEYER DEMIANLE000559919352820GCH             GUALEGUAYCHU         SANTIAGO DIAZ 18000140Entregas_04.txt
00000006003444244075                                MARFURESCO GONZALOLE000559931432322SUN                SUNCHALES                 Mitre 41000220Entregas_04.txt
00000006003444333039                                   MOHAMED MARIANOLE000559943512322SUN                SUNCHALES                 Mitre 41000220Entregas_05.txt
00000006003444422003                               PALTRINIERI CECILIALE000569899072322SUN                SUNCHALES                 Mitre 41000220Entregas_05.txt
00000006003444510967                                  RODRIGUEZ MANUELLE000569911152600VTO            VENADO TUERTO       12 de octubre 0806000220Entregas_05.txt
00000000000005401300                                   SEGURADO VIVIANLE000441264471010TBL           DIAGONAL NORTE              Cerrito 404000095Entregas_05.txt
00000006003444599931                                    SIGNORI JAVIERLE000569923232600VTO            VENADO TUERTO       12 de octubre 0806000220Entregas_05.txt
00000006003444688895                                     VERNIS VICTORLE000578033592600VTO            VENADO TUERTO       12 de octubre 0806000220Entregas_05.txt
00000006003443443399                                    BEUNZA GUSTAVOLE000520028192701INO                PERGAMINO            Italia 471/89000120Entregas_06.txt
00000006003443532363                                  CALEJMAN EDUARDOLE000520040272701INO                PERGAMINO            Italia 471/89000120Entregas_06.txt
00000000000000133125                                  CIARLO FABRICCIOLE000147806701010TBL           DIAGONAL NORTE              Cerrito 404000095Entregas_06.txt
00000000000000246462                                    CIATEO EMANUELLE000021114441010TBL           DIAGONAL NORTE              Cerrito 404000095Entregas_06.txt
00000006003443621327                                      CLARK EMILIOLE000520052352701INO                PERGAMINO            Italia 471/89000120Entregas_06.txt
00000000000000259798                                  DE CARLI MARIANALE000051524951010TBL           DIAGONAL NORTE              Cerrito 404000095Entregas_06.txt
00000006003443710291                                     DENARI CARLOSLE000531034922820GCH             GUALEGUAYCHU         SANTIAGO DIAZ 18000140Entregas_06.txt
00000006003444777859                                      ZAIATZ OSCARLE000578045672600VTO            VENADO TUERTO       12 de octubre 0806000220Entregas_07.txt
00000000000005414636                                      ZEDNIK GILDALE000519886861010TBL           DIAGONAL NORTE              Cerrito 404000095Entregas_07.txt
